:100000000C94320B0C94510B0C94510B0C94510B1F
:100010000C94510B0C94510B0C94510B0C94510BF0
:100020000C94510B0C94510B0C94510B0C94510BE0
:100030000C94510B0C94510B0C94510B0C940141EA
:100040000C94510B0C94510B0C94510B0C94510BC0
:100050000C94510B0C94510B0C94510B0C94510BB0
:100060000C94510B0C94510B0C94510B0C94510BA0
:100070000C94510B0C94510B0C94510B0C94510B90
:100080000C94510B0C94510B0C94510B6E616E003F
:10009000696E660000407A10F35A00A0724E18098B
:1000A0000010A5D4E80000E87648170000E40B54DF
:1000B000020000CA9A3B000000E1F50500008096AE
:1000C0009800000040420F000000A08601000000E0
:1000D000102700000000E80300000000640000009A
:1000E00000000A00000000000100000000002C7663
:1000F000D888DC674F0823DFC1DFAE59E1B1B7967E
:10010000E5E3E453C63AE651997696E8E6C28426DA
:10011000EB898C9B62ED407C6FFCEFBC9C9F40F2B6
:10012000BAA56FA5F490055A2AF75C936B6CF96732
:100130006DC11BFCE0E40D47FEF520E6B500D0EDF7
:10014000902E0300943577050080841E080000205F
:100150004E0A000000C80C333333330F986E1283FD
:100160001141EF8D2114893BE65516CFFEE6DB18D1
:10017000D1844B381BF77C1D901DA4BBE424203296
:1001800084725E228100C9F124ECA1E53D272D5641
:100190004143494F2D00000000616E74656E61009F
:1001A000000000006269656E76656E6964610063D7
:1001B00068696D656E65610000006369656C6F72EA
:1001C0007261736F00636F62657274697A6F0000A9
:1001D000636F6D7075746572000000646F626C65AA
:1001E000000000000000696E677265736F00000018
:1001F0000070616E74616C6C6100000070657273F8
:1002000069616E6100000073616C696461000000E7
:1002100000007365746F00000000000000736F6CD5
:100220002D736F6D62726100746563746F7200008C
:1002300000000074616269717565726961007465BE
:100240007272656E6F0000000074696D6272650005
:100250000000000074726167616C757A0000003103
:10026000000000000000000000003200000000005C
:10027000000000000033000000000000000000004B
:100280003400000000000000000000350000000005
:100290000000000000003600000000000000000028
:1002A00000370000000000000000000038000000DF
:1002B0000000000000000039000000000000000005
:1002C000000031300000000000000000002D564109
:1002D00043494F2D000000006162616A6F00000019
:1002E000000000616C746F28612900000000616EDD
:1002F000746572696F7200000061727269626100F8
:100300000000000062616A6F28612900000000633C
:10031000656E74726F0000000000636F7374616437
:100320006F000000006372757A61646F0000000066
:1003300064656C616E74657261000064657265630A
:10034000686F28612900646961676F6E616C0000E5
:10035000006573746500000000000000656D622E8A
:1003600070617265640000656D622E7069736F0064
:10037000000065787472656D6F000000006672653C
:100380006E74650000000000666F6E646F00000010
:10039000000000697A7175696572646F0000696EAA
:1003A000742E31000000000000696E742E320000CF
:1003B00000000000696E742E330000000000006928
:1003C0006E742E34000000000000696E742E35003B
:1003D0000000000000696E742E360000000000006E
:1003E000696E742E37000000000000696E742E38AC
:1003F000000000000000696E742E3900000000004B
:10040000006C61746572616C000000006D6974615C
:10041000640000000000006E6F7265737465000078
:1004200000006E6F726F657374650000006E6F720E
:1004300074650000000000006F65737465000000C3
:10044000000000706F73746572696F7200007069EC
:10045000736F00000000000000736563746F72200A
:1004600031000000736563746F7220320000007306
:100470006563746F722033000000737572000000B2
:100480000000000000737572657374650000000061
:100490007375726F65737465000000746563686FCF
:1004A0000000000000007472617365726F2861299A
:1004B000002D564143494F2D00000000616D706FC3
:1004C0006C6C61000000006170616E74616C6C6145
:1004D000640062616C617374726F0000006272612B
:1004E0007175657465000000626F6D62696C6C61A6
:1004F00000000063616E64656C6162726F00636F1F
:100500006C67616E74650000006372697374616C7E
:10051000000000006375626F0000000000000064CE
:100520006963726F69636F00000064696675736F59
:100530007200000000657366657269636F000000F9
:1005400065737461636100000000006661726F0092
:10055000000000000000666C756F206672696F0015
:1005600000666C756F426C616E636F00666C756FD0
:10057000726573632E0000666F636F0000000000F9
:100580000000666F636F2041686F72720068616C73
:100590006F67656E6F00000068616C6F73706F74D9
:1005A000000000686F726E6163696E610000696EC1
:1005B00063616E646573632E00696E64756363695D
:1005C0006F6E00006C2E636F6C67616E7465006CFB
:1005D000616D702E6D65736100006C616D702E74BD
:1005E0006563686F006C616D702E70696500000056
:1005F0006C616D70617261000000004C4544000048
:100600000000000000004C757A00000000000000AF
:10061000006C757A44697265637400006C757A4980
:100620006E6469726563006D6572637572696F00EF
:10063000000052474200000000000000006E6963A5
:10064000686F00000000000070617261626F6C6989
:10065000636F00706C61666F6E0000000000706F69
:100660007374650000000000007265666C65637459
:100670006F720000736F64696F0000000000007308
:10068000706F746C69676874000074656C6573637F
:100690006F706963007469726100000000000000FF
:1006A0002D564143494F2D00000000416C65726F8B
:1006B0000000000000004173656F000000000000B2
:1006C0000042616C636F6E000000000042617200C6
:1006D00000000000000000426F64656761000000D8
:1006E0000000436572636F00000000000043657303
:1006F0007065640000000000436F6368657261000C
:10070000000000436F63696E610000000000436FEA
:100710006D65646F720000000043756172746F5301
:1007200065727600446573706163686F0000004411
:10073000657370656E736100000044657376616E69
:100740000000000000446F726D69746F72696F0081
:10075000456E74722E4175746F0000456E7472613F
:10076000646100000000457363616C6572610000A4
:10077000004573747564696F000000004861626928
:10078000746163696F6E0048616C6C00000000006A
:1007900000004A617264696E00000000004C6176DE
:1007A000616465726F0000004C6F62627900000046
:1007B000000000506172656400000000000050619C
:1007C00073616469736F000000506173696C6C6FD2
:1007D00000000000506174696F00000000000050CC
:1007E000696C657461000000000050697363696E94
:1007F00061000000005069736F00000000000000FD
:10080000506C616E74610000000000506F7274697A
:10081000636F000000005075657274610000000095
:100820000053616C610000000000000053616C6FB8
:100830006E000000000000536572766963696F7393
:100840000000536F74616E6F000000000054656318
:10085000686F00000000000054657272617A6100E8
:1008600000000056656E74616E6100000000566500
:1008700073746962756C6F0000546F646F7320301D
:1008800025000000546F646F73203235250000543A
:100890006F646F73203530250000546F646F7320D0
:1008A0003735250000546F646F203130302500004B
:1008B0004C757A205061736F0000004C757A446962
:1008C0006172696F00004C757A4E6F636865000055
:1008D000004C757A54617264650000004C757A565C
:1008E000697369746100004C757A2043656E61001C
:1008F00000004D697820310000000000004D69784B
:1009000020320000000000004D6978203300000014
:100910000000004D697820340000000000004D699F
:100920007820350000000000004D69782036000076
:10093000000000004D697820370000000000004DE5
:10094000697820380000000000004D6978203900E7
:1009500000000000005265756E696F6E00000000B7
:10096000526563657063696F6E00004A7565676FF5
:100970000000000000004C656374757261000000A7
:100980000043616C69646F0000000000436F6E6695
:100990006F727400000000466965737461000000A6
:1009A00000004672696F00000000000000496E748C
:1009B00065726D6564696F004E61747572616C007B
:1009C0000000004E657574726F00000000005375E2
:1009D00074696C0000000000004465636F7261740C
:1009E00069766F00416772616461626C65000056F0
:1009F000656C61646100000000004C2E456E7472ED
:100A00006164610000456D657267656E63696100D0
:100A10005A005A00656C696D696E616461004573C6
:100A200063656E61006F6B00657363656E61730073
:100A30004E6F206578697374656E00457363656EEB
:100A4000613A0053616C69723F002A2A2A2A002AFF
:100A500000457363656E613A005D006F6B005B007B
:100A600042757371756564610063616D62696F736E
:100A70003F00477561726461720073656C65636302
:100A8000696F6E3F00436F6E6669726D61007365DA
:100A90006C656363696F6E3F0043616E63656C6193
:100AA000720053616C69723F00457363656E61202B
:100AB0003F004E6F6D6272617200417669736F0024
:100AC0005A36005A35005A34005A33005A32005A06
:100AD000310022080A0E20600402050607080902F8
:100AE00003030508020402040704070707070707B2
:100AF00007070202070707080E0908080807070981
:100B000008020708070B0809070909070808090D63
:100B10000708080404040608030707060707050773
:100B200007020306020A0707070705060507070B62
:100B30000607050501050708000000000000000089
:100B4000FEFE18181E1E001E1E000000000090F879
:100B50009E90F89E1C00001C0000183C26FF66CCEE
:100B600088040C183C180C041C221CC0308E4080D9
:100B700000001804000C100C80CC7E72F2DE0C8099
:100B8000000C1C1010101C0C1C101E1E0000F0FC91
:100B9000061C7CC006FCF0C07C1C14140E1414004F
:100BA00000000000606060FCFC6060600000000C01
:100BB0000C00000000005838C0C0C0C00000000099
:100BC0000000181800C0380618040000F8FC0E06D3
:100BD0000EFCF8040C1C181C0C04180CFEFE000083
:100BE0001C1C181C86C6663E1C181C1C18181818DD
:100BF000888C062626FEDC040C1C18180C04C0E0A9
:100C0000B88CFEFE80040404041C1C04707E3E3676
:100C100036F6C60C1C1818180C04F8FC6E6666EE46
:100C2000CC040C1818181C0C060606E6761E0600E6
:100C3000001C1C0000009CFE666666FE9C0C1C18D6
:100C400018181C0C3C7E666666FCF80C1C18181CF8
:100C50000C0418181818181858386060F0F0989894
:100C60000C0000000004040CD8D8D8D8D8D8D8007C
:100C70000000000000000C9898F0F060600C040484
:100C800000000000080C06C6E6763C1800000018BC
:100C900018000000E03008C4F63A1A1AF2FA7E048E
:100CA00008F00C30604C9C98988C9C9C90484C2090
:100CB00000C0F8BE86BEF8C000181C04040404047A
:100CC0001C18FEFE66666666FEDC1C1C18181818EA
:100CD0001C0CF8FC0E06060E9C08040C1C18181CB4
:100CE0000C04FEFE0606060EFCF81C1C1818181C48
:100CF0000C04FEFE66666666661C1C18181818183A
:100D0000FEFE66666666061C1C0000000000F8FC1D
:100D10000E0606C6CEDCC8040C1C181818180C04E5
:100D2000FEFE60606060FEFE1C1C000000001C1CDB
:100D3000FEFE1C1C8080000000FEFE0C1C18181813
:100D40001C0CFEFE603078EC86021C1C00000004C7
:100D50001C18FEFE00000000001C1C1818181818B3
:100D6000FEFE0E7CE000E07C0EFEFE1C1C00000C73
:100D70001C0C00001C1CFEFE1C78E080FEFE1C1CEF
:100D80000000040C1C1CF8FC0E0606060EFCF80401
:100D90000C1C1818181C0C04FEFE6666667E3C1CB3
:100DA0001C0000000000F8FC0E0686060EFCF8048D
:100DB0000C1C18181C0C1C24FEFE6666E6E6BE1C05
:100DC000001C1C0000000C1C18103C7E666666EEC1
:100DD000CC0C1C1818181C0C060606FEFE0606068F
:100DE0000000001C1C000000FEFE00000000FEFED3
:100DF000040C1C18181C0C04021EFCE000E0FC1E75
:100E0000020000001C1C1C00000006FEF800F0FEA2
:100E10000EFEF000F8FE0600001C1C1C0000001C6A
:100E20001C1C0000060EF8F0F80E06181C04000446
:100E30001C18060E38F0F0380E060000001C1C00CE
:100E40000000060686E6761E0E06181C1C181818EA
:100E50001818FEFE0606FCFCC0C00638C0000000E4
:100E600004180606FEFEC0C0FCFC20380E0E38201A
:100E70000000000000000000000000000000808072
:100E80008080808080800206040000001098D8587E
:100E9000F8F0000C1C18180C1C10FEFE301838F06E
:100EA000E01C1C0C181C0C04E0F018183830040C62
:100EB00018181C0CE0F0381830FEFE040C1C180C3E
:100EC0001C1CE0F0D8D8D8F0E0040C18181818084A
:100ED00018FCFE1A1A001C1C0000E0F0381830F84C
:100EE000F864ECDCD8CCFC7CFEFE301818F8F01C62
:100EF0001C0000001C1CFAFA1C1C00FAFAC0FC7C46
:100F0000FEFEE0F098081C1C00041C18FEFE1C1CD1
:100F1000F8F81018F8F01818F8F01C1C00001C1C49
:100F200000001C1CF8F8301818F8F01C1C00000019
:100F30001C1CE0F0381838F0E0040C1C181C0C04E1
:100F4000F8F8301838F0E0FCFC0C181C0C04E0F049
:100F5000381830F8F8040C1C180CFCFCF8F83018A1
:100F6000181C1C00000070F8D8D8D8900818181861
:100F70001C0C18FCFE1818000C1C1818F8F80000BF
:100F800000F8F80C1C18180C1C1C38F8C000C0F82D
:100F90003800001C1C1C000018F8E000F038F000BD
:100FA000E0F81800001C1C0C000C1C1C0000183879
:100FB000E0E03818181C04041C1818F8E000E0F8E9
:100FC000180084FCF83C04001898D878381C1C18C9
:100FD000181880FC7E0606007CFCC0C0FEFC0606DD
:100FE0007EFC80C0C0FC7C006030307060603000EF
:100FF000000000000000FE020202020202FE1C10BD
:1010000010101010101C1A4C060D20600001030671
:10101000050909010303050702030103050305058B
:101020000605050505050102060606040A08070768
:101030000807060808030408070B0808060808053F
:101040000708070B08080703030206060205050444
:101050000604040506030206030906050606040441
:10106000030606090507050301030506FE100E0029
:101070000E000000D0785650F856180000180000F6
:101080001C12FF22C408103810080C128C403008C3
:10109000864080001008000000081008C0203CD2E4
:1010A0008A463010000810101008101010080E00AA
:1010B000F00C02083040020CF040300814083E08E2
:1010C000140000000000202020FC20202000000050
:1010D00008000000000050308080800000000010F8
:1010E00000F806180000FC020202FC0810101008AC
:1010F00004FE00101810040282423C101810101850
:1011000004022232CC1010101008C0A0908CFE8077
:10111000000000001800000C0A12E2101010080075
:10112000F0281412E20810101008040202F20E0057
:10113000001800008C5262528C08101010083C42BB
:1011400042C27C10100800001010100050302050D7
:1011500050508888000000000000505050505050FF
:10116000000000000000888850505020000000005F
:1011700000000CC2221C00100000F008E4120A0A51
:10118000927A04F81820489090888890482000802F
:10119000784658608000101810000010181002FEE9
:1011A0002222223CC010181010101008F80402026D
:1011B00002048E0008101010080002FE0202020253
:1011C00004F8101810101010080002FE22227206F7
:1011D000001018101010100802FE222272061018BB
:1011E00010000000F80402020224EE200008101093
:1011F0001010080002FE22202022FE02101810000B
:101200000010181002FE021018100002FE02181042
:10121000080002FE22508806020210181000001872
:10122000101002FE0200000000101810101010082C
:1012300002FE0638C000E01806FE0210181000007A
:1012400018000010181002FE08106082FE0210182C
:10125000100000001800F8040202020204F800085E
:1012600010101010080002FE2222221C101810007C
:101270000000F8040202020204F8000810103050C6
:10128000484002FE2222E21C000010181000000854
:1012900010100C122222C61810101008060202FEAE
:1012A0000202060000101810000002FE02000002F8
:1012B000FE020008101010100800021EE200E21EDC
:1012C0000200000018000000021EE280621EE280A0
:1012D000720E020000001800000018000000020654
:1012E0008A70708A0602101810000010181002068A
:1012F0003AC0300A060200001018100000000086F4
:1013000042320A068210181010101018FE020278DD
:10131000404006F80000001802FE4078100C02025F
:101320000C100000000000000000000000008080A1
:101330008080808004080000A05050E00008101059
:101340001810FE201010E00810101008E0101030E7
:1013500008101008E0101022FE00081010081810E5
:10136000E05050600810100810FC12021018100015
:101370006090907010689090906002FE2010E000E5
:1013800010181000181010F20010181010F28078C9
:1013900002FE40B0100010181000181002FE0010DD
:1013A000181010F02010E02010E0001018100018A5
:1013B0001000181010F02010E00010181000181085
:1013C000E0101010E0081010100810F0201010E0CD
:1013D00080F888101008E0101020F0000810108825
:1013E000F88010F0201010181000605090B0181005
:1013F000100810FC1000181010F00010F000000889
:101400001010181030D000C030100000180000007C
:1014100010F00090F010C03010000018000018000C
:1014200000001030C030101018001810107090001C
:10143000D03010808048300800003010D0301010BC
:101440001810101840BC02003840FE7802BC404022
:1014500038008040C080400000000000FC0404040C
:1014600004FC18101010101842454C494D462048F5
:101470004F4D450053616C69723F00457363656E63
:101480006173203F0043616D626961722061006F8A
:101490006B007A6F6E617300546F646173206C61CE
:1014A000730053696E63726F6E697A61006573636E
:1014B000656E6173004E6F206578697374656E00A8
:1014C000457363656E613A0073696E63726F6E692E
:1014D0007A3F0043616E63656C617200627573717F
:1014E000756564613F0043616E63656C61720044C1
:1014F000696D6D696E670053696E63726F6E697AAC
:1015000061007A6F6E6173203F0043616D626961B3
:101510007220612000657363656E61203F00427533
:10152000736361720053616C69723F0053616C694F
:10153000723F00656A6563757461646F0043616D35
:1015400062696F0063616D62696F733F004163653B
:10155000707461720053454C4543540044696D6D8D
:1015600061626C65004E6F2D44696D6D005D004ECB
:101570006F005B005D005369005B00456E650046CF
:101580006562004D617200416272004D6179004AEE
:10159000756E004A756C0041676F00536574004FAB
:1015A0006374004E6F760044696300446F6D004CB5
:1015B000756E004D6172004D6965004A7565005693
:1015C0006965005361620043616D706F3A005A6F44
:1015D0006E613A0073656C656363696F6E65004E9A
:1015E0006F6D627261720044696363696F6E6172EC
:1015F000696F00477561726461646F210053616CAB
:101600006972203F006E6F6D627265203F004E75FB
:1016100065766F0063616D62696F203F0047756199
:10162000726461720044696363696F6E6172696FAD
:101630000053616C69723F00416D6269656E74654B
:101640000000004C756D696E617269610000506F39
:10165000736963696F6E0000004F74726F730000EE
:101660000000000011241FBECFEFD0E1DEBFCDBFD0
:1016700017E0A0E0B1E0E8EEF6EA00E00BBF02C040
:1016800007900D92AE38B107D9F72BE0AEE8B7E07E
:1016900001C01D92AA33B207E1F70E943D2C0C94C1
:1016A00072530C940000E4E0F8E080818160808354
:1016B000E4E6F0E080818061808308958091FF07F7
:1016C00081110CC0109200088091650080618093A8
:1016D00065008091FF078F5F8093FF078091FF0770
:1016E0008130D1F4809100088F5F809300088830AA
:1016F00098F0809165008F7E8093650010920008BD
:101700001092FF07809105088E7F809305088091D5
:1017100004088D7F8093040808958091FF0781114C
:1017200009C010920008109201088091FF078F5F96
:101730008093FF078091FF07813061F580916500FC
:10174000806180936500809101088F5F809301081C
:1017500080910108813029F483E0809302088DE0B4
:1017600008C080910108823039F486E08093020835
:101770008CE08093030809C080910108833029F42C
:101780008EE180930208109203088091FF078F5F1B
:101790008093FF078091FF078230A9F480910008B1
:1017A0008F5F809300089091020889130CC01092FB
:1017B0000008809165008F7E809365008091FF070F
:1017C0008F5F8093FF078091FF078330E1F4809162
:1017D0000108833078F4809100088F5F80930008BF
:1017E0009091030889130FC01092000881E0809344
:1017F000FF070895809104088D7F8093040810925C
:1018000001081092FF0708958091040881FF0AC023
:101810008091050880FD0C945E0B8091050881FD88
:101820000C948D0B08958091370880FF05C080913E
:101830003708826080933708089580910708826096
:1018400080930708089580910F08813061F4109209
:101850000E0810920D0882E08093080880910F080E
:101860008F5F80930F0880910F08823089F48091F8
:101870000D0890910E08019690930E0880930D0824
:10188000803A9F4029F481E08093080810920F0865
:10189000089580910B088F5F80930B0880910B084F
:1018A0008C3049F410920B0880910C08882311F0B9
:1018B000DC9801C0DC9A90910B0880910C08981379
:1018C00001C0DC9A089520910808213009F5809123
:1018D000090890910A08019690930A0880930908D4
:1018E000813B914011F510920A08109209088091ED
:1018F0000C08823030F080910C08815080930C08E5
:1019000002C020930C0880910C08813071F40BC048
:1019100080910808823049F48CE080930C08109282
:101920000A0810920908109208080C94490CCF92EA
:10193000DF92EF92FF920F931F93CF93DF93EB0110
:10194000E82FF0E0EE0FFF1FEE5FFE4F00811181E8
:101950008091010160910001869FB0011124072E42
:10196000000C880B990B0E9423509B01AC0160E096
:1019700070EC8FE794EC0E94804F6B017C01BE01FC
:1019800080E090E00E9421509B01AC01C701B601AC
:101990000E94D85020E030EC4FE754E40E940F4FF3
:1019A0000E94F24FF80171836083DF91CF911F9104
:1019B0000F91FF90EF90DF90CF900895EF92FF92FC
:1019C0001F93CF93DF93182FE82EF12C84E2189FFA
:1019D000E0011124CE59D54F8F8D81111BC0888510
:1019E00099850197B9F42D8D3E8D88859985820F53
:1019F000931F9987888760E080E00E94A13F8091D3
:101A0000370882FF0DC0688579854FEF812F0E94CE
:101A1000571F06C0E0913002F0913102812F0995E5
:101A200084E28E9DF0018F9DF00D1124EE59F54F4B
:101A300060857185812FDF91CF911F91FF90EF908D
:101A40000C94970CEF92FF921F93CF93DF93182F74
:101A5000E82EF12C84E2189FE0011124CE59D54FD5
:101A6000288539858D8D9E8D8217930738F18F8D4E
:101A7000811124C0288539858D8D9E8D28173907C1
:101A8000E9F460E080E00E94A13F8091370882FF86
:101A90000AC06D8D7E8D80910001680F711D40E040
:101AA000812F0E94571F84E28E9DF0018F9DF00DC3
:101AB0001124EE59F54F1186108606C0E0913202CE
:101AC000F0913302812F099584E28E9DF0018F9D64
:101AD000F00D1124EE59F54F60857185812FDF914E
:101AE000CF911F91FF90EF900C94970C613011F4FF
:101AF0000C94DE0C0C94220D94E2899FF0011124C9
:101B0000DF01A658B54F8C91EE59F54F80FF03C009
:101B100085859685089580859185089524E2829F24
:101B2000C0011124FC01EE59F54F8681813031F45A
:101B30008781813059F47687658708958681811180
:101B400005C08781811102C071876087089594E282
:101B5000899FF0011124EE59F54F9681913029F4B7
:101B60009781913061F40C94C21A9681911107C04B
:101B70009781911104C0608571850C94970C08952C
:101B8000CF92DF92EF92FF920F931F93CF93DF9349
:101B9000CDB7DEB727970FB6F894DEBF0FBECDBF27
:101BA0001091010100910001BC0180E090E00E94D1
:101BB000215020E030E048EC52E40E94D8506B0104
:101BC0007C01109FB0011124072E000C880B990B8B
:101BD0000E9423509B01AC01C701B6010E94804FB7
:101BE0009F938F937F936F9384E897E09F938F9356
:101BF000CE0101967C019F938F930E94E5524FEF97
:101C000064E475E286E090E10E94472500E02CE064
:101C100044E26FE28AE00E9461286FE28AE00E945B
:101C2000DA25C7010E94E92B89E897E00E94E92B99
:101C30000FB6F894DEBF0FBECDBF27960FB6F8944F
:101C4000DEBF0FBECDBFDF91CF911F910F91FF90EF
:101C5000EF90DF90CF9008950F931F93CF93DF9372
:101C600094E2899F80011124E801CE59D54F9E81CD
:101C7000913041F5F801E658F54F908190FD22C072
:101C8000488559859091010120910001929F900112
:101C9000112442175307B0F4288539852F5F3F4F31
:101CA000398728870E94DE0CF801E558F54F8081BE
:101CB00080FF08C088859985DF91CF911F910F9192
:101CC0000C94C00DDF91CF911F910F910895CF9388
:101CD000DF93C82FD0E094E2899F90011124F9018D
:101CE000EE59F54F96819130A1F5D901A658B54F1F
:101CF0009C9190FD2EC040855185452B51F140852A
:101D00005185415051095187408760857185458DC6
:101D1000568D4617570730F0F901E259F54F90817B
:101D20009E7F90830E94220D24E22C9FC0012D9F54
:101D3000900D1124FC01E558F54F208120FF09C0CA
:101D4000FC01EE59F54F80859185DF91CF910C9480
:101D5000C00DDF91CF91089524E2829FC00111242C
:101D6000FC01EE59F54F8681813031F48781813055
:101D700069F48585968508C08681811107C08781B1
:101D8000811104C0808591850C94C00D0895CF9277
:101D9000DF92EF92FF920F931F93CF93C82F0E9471
:101DA0007C0DEC2EF12C24E2C29F80011124F8015D
:101DB000EE59F54F6F01258D368D2817390708F03C
:101DC00050C08C2F0E947C0D2091010130910001A8
:101DD000239F900111248701000F111F8217930781
:101DE000E9F4F601828D8130C9F422853385809132
:101DF000010190910001899FC00111242817390722
:101E000068F4628573858C2F0E948E0D0E0D1F1D48
:101E1000F801E85CFD4F8081816054C084E28E9DB2
:101E2000F0018F9DF00D1124DF01AE59B54F1896CA
:101E30008D919C9119971B969C938E931A97E259BA
:101E4000F54F80818160808360E070E08C2F0E947C
:101E50008E0D0E0D1F1DF801E05DFD4F86818783FD
:101E600032C00259154FF801808180FD18C0F6017B
:101E700081A1811108C08091010160910001869FBC
:101E8000B001112408C0F60181A18130E1F4658D13
:101E9000768D6F5F7F4F8C2F0E948E0D14C0F701DF
:101EA000EE0FFF1FEE0DFF1DE85CFD4F808181608E
:101EB0008083F601628573858C2F0E948E0DF80158
:101EC00080818E7F808384E28E9D80018F9D100DA6
:101ED00011240E59154FF8018681811112C080918D
:101EE000010160910001869FB001112440E08C2F18
:101EF0000E94571FF801608571854FEF8C2F0E945B
:101F0000571F84E28E9DF0018F9DF00D1124E5583E
:101F1000F54F808180FF03C08C2F0E94AC0E8C2F68
:101F20000E94A70D84E28E9DF0018F9DF00D11247B
:101F3000EE59F54F128ECF911F910F91FF90EF90B8
:101F4000DF90CF900895EF92FF920F931F93CF935E
:101F5000C82F0E947C0D2091010130910001239F28
:101F6000900111240C2F10E08217930740F58C2F5D
:101F70000E947C0D24E2209FF001219FF00D11248E
:101F8000EE59F54F258D368D2817390720F48085B9
:101F90009185938782878091010160910001869FDE
:101FA000B00111248C2F0E948E0DF801EE0FFF1F3F
:101FB000E00FF11FE05DFD4F8681878305C060E083
:101FC00070E08C2F0E948E0D24E2209FC001219F83
:101FD000900D11249C012E59354F7901F90186810C
:101FE000811112C08091010160910001869FB001B2
:101FF000112440E08C2F0E94571FF70160857185E6
:102000004FEF8C2F0E94571F84E2809FF001819F29
:10201000F00D1124E558F54F808180FF03C08C2F0F
:102020000E94AC0E84E2809FF001819FF00D11248C
:10203000EE59F54F81E0828F8C2FCF911F910F9138
:10204000FF90EF900C94A70DEF92FF920F931F93C8
:10205000CF93C82F0E947C0DEC2EF12C24E2C29F5E
:10206000F0011124EE59F54F258D368D28173907CB
:1020700018F460E070E007C08091010160910001F8
:10208000869FB00111248C2F0E948E0D84E28E9DBC
:1020900080018F9D100D11240E59154FF801868176
:1020A000811112C08091010160910001869FB001F1
:1020B000112440E08C2F0E94571FF8016085718524
:1020C0004FEF8C2F0E94571F84E28E9DF0018F9D51
:1020D000F00D1124E558F54F808180FF03C08C2F4F
:1020E0000E94AC0E8C2FCF911F910F91FF90EF901B
:1020F0000C94A70DEF92FF920F931F93CF93C82FCD
:102100000E947C0D2091010130910001239F9001DC
:1021100011248217930740F480910101609100011E
:10212000869FB001112402C060E070E08C2F0E94F5
:102130008E0DEC2EF12C84E2C89F800111240E59E3
:10214000154FF8018681811112C0809101016091C3
:102150000001869FB001112440E08C2F0E94571F80
:10216000F801608571854FEF8C2F0E94571F84E224
:102170008E9DF0018F9DF00D1124E558F54F808163
:1021800080FF03C08C2F0E94AC0E8C2FCF911F912B
:102190000F91FF90EF900C94A70D1F93CF93DF93B7
:1021A000C0E0D0E014E28C2F0E947C0D1C9FF00157
:1021B0001D9FF00D1124EE59F54F258D368D2817F2
:1021C000390730F02196C630D10569F781E001C0AA
:1021D00080E0DF91CF911F91089580E090E024E2AC
:1021E000289FF001299FF00D1124E259F54F30810D
:1021F00030FD06C001968630910591F781E0089583
:1022000080E00895E2E6F0E0808182608083A1E6CC
:10221000B0E08C9182608C938C9181608C938081F2
:10222000816080838FE39CE90197F1F700C0000093
:1022300040E06FE080ED0E94B11F40E06EE080ED75
:102240000C94B11FCF93DF931F92CDB7DEB7E19906
:10225000FECF9FBB8EBB6DBB8FB78983F894E29A8C
:10226000E19A89818FBF0F90DF91CF9108951F93DD
:10227000CF93DF93EC01172F0E942211612FCE0123
:102280000196DF91CF911F910C942211E199FECF1D
:102290009FBB8EBBE09A8DB308950F931F93CF938E
:1022A000DF931F92CDB7DEB78C010E944611898360
:1022B000C80101960E944611298130E0A901582BDE
:1022C000CA010F90DF91CF911F910F910895DF9276
:1022D000EF92FF920F931F93CF93DF9398E4E92E31
:1022E00092E0F92E21E3D22EE701C854D240CC0F60
:1022F000DD1FCC0FDD1FFE01ED5EF74F808180FFFB
:1023000036C08E01005F174FF801808191810196E0
:10231000918380838436910529F511821082828110
:10232000809582834FEF64E475E286E090E10E943D
:102330004725F801828181110DC062E0F70180819B
:102340000E94DA2582E19AE00E94112C8D2D0E94D4
:10235000EA2A08C000E02BE04FE061E0F70180814D
:102360000E946128CD5ED74F888182608883FFEF0D
:10237000EF1AFF0AD39487E3D812B6CFDF91CF913B
:102380001F910F91FF90EF90DF900895E0E1F8E04A
:1023900083E690E09183808395838483918780870F
:1023A00095878487918B808B958B848B0895E3E14F
:1023B000F8E0808181608083E7E1F8E080818160DE
:1023C0008083EBE1F8E0808181608083EFE1F8E0D9
:1023D000808181608083E3E2F8E080818160808396
:1023E000E7E2F8E080818160808308951F93CF93B6
:1023F000DF93282F30E0E901CC0FDD1FCC0FDD1F6C
:10240000FE01ED5EF74F90819E7F9083908191FF5A
:102410001AC0182F80818D7F8083F901E85BFD4F02
:1024200062E080810E94DA2580E19AE00E94112C0E
:1024300081E3810F0E94EA2AC05FD74F1A8283E6A8
:1024400090E099838883DF91CF911F910895CF9376
:10245000C0E08C2F0E94F611CF5FC630D1F7CF912C
:10246000089520919C0180913608022E000C330BB8
:1024700090E02817390714F010929C0180919C017C
:1024800087FF05C080913608815080939C01E091C0
:10249000AA01F091AB010994089582E08093100A9B
:1024A000EFE8F7E01182128283E0809369080895D3
:1024B0000E944D1261E080E00C94A13F60E080E05A
:1024C0000E94A13FE0917306F09174060994E09197
:1024D0006F06F0917006099560E080E00C94A13FD2
:1024E000E0916D06F0916E06099560E080E00C9435
:1024F000A13F1F93CF93DF9360E080E00E94A13F54
:10250000CFE8D7E011E0188361E08EE091E00E940F
:10251000B82419831A82DF91CF911F91089561E049
:1025200080E00E94A13FE0E9F1E01086128681E0A0
:10253000838780938E078FEF8093690808950F93A8
:10254000E091AE01F091AF0109958091360863E109
:10255000882351F086E00E94DA258BE39AE00E94FE
:10256000112C0F910C94311286E00E94DA2580E341
:102570009AE00E94112C6EE18AE00E94DA2588E23E
:102580009AE00E94112C00E02DE34CE761E082E428
:102590000E9461280F910895E0917106F0917206F2
:1025A000099580916906811102C061E006C08091A1
:1025B0006906813021F460E080E00C94A13F089529
:1025C0000C94CC1260E080E00E94A13F809136081C
:1025D000882391F064E389E00E94A21E1092940186
:1025E0001092960181E08093970180919C01815027
:1025F00080939C010C943112089560E080E00E9469
:10260000A13F80913608882391F064E386E30E941D
:10261000C91E109290011092920181E08093930163
:1026200080919C018F5F80939C010C9431120895DE
:10263000CF92DF92EF92FF920F931F93CF93DF938E
:1026400080919C0190913608992309F47AC04091B9
:102650009C0120912808042E000C550B30E04217F5
:10266000530719F49FEF9093280840919C01209103
:102670003608042E000C550B30E02150310942176A
:10268000530749F490919C0119162CF490919C01E8
:10269000915090939C01DDE0E82EF12C20913608BA
:1026A00030E021503109E216F306C4F59DE0899F20
:1026B0006001112400E010E0C1E0C80F8FEFC81ADC
:1026C000D80A602F8C2F0E94A1159801220F331F6A
:1026D0002C0D3D1DBC01C90180509E4F0E94371139
:1026E0000F5F1F4F0630110561F797012F5F3F4FB6
:1026F000D29FC001D39F900D112480509E4F0E9405
:102700004611DE9D9001DF9D300D1124682FC90117
:1027100080509E4F0E9422118C2FBECF8091360890
:102720008150809336086091360881E091E0DF9116
:10273000CF911F910F91FF90EF90DF90CF900C946D
:102740002211DF91CF911F910F91FF90EF90DF90B9
:10275000CF9008950F9380919007811134C080919C
:10276000910781112BC081E08093910710928F0710
:1027700060E08EE091E00E94B82400E02FE34FEB90
:1027800060E080E00E9461280FEF2FE34FE360E0FC
:1027900080E00E94F4282FE34EE760E081E40E948D
:1027A000F428809128088F3F29F080912808809391
:1027B0009C0102C010929C010E949F128FEF809397
:1027C000900710929107809190078130D9F59091F0
:1027D0009107911114C0809391074FE16FE18FE150
:1027E0000E94021C69E181E10E94DA2583E49AE0FB
:1027F0000E94112C40E062E082E00E94E63D809160
:1028000091078130F9F480916A0687FD1BC08091A1
:102810006A06813019F40E944D1211C080916A0637
:10282000882321F080916A06833061F40E949F1210
:1028300010928F0760E08EE091E00E94B8248FEF45
:1028400080936A0663E070E080E991E00E9462464E
:1028500080919201882331F064E386E30E947B1E1D
:102860001092920180919601882331F064E389E00F
:102870000E94541E1092960180918E07882309F4BD
:1028800070C0813009F060C080919A0181111BC035
:1028900080919A018F5F80939A0100E02AE04EE0D8
:1028A0006FE289E10E9461286FE28AE10E94DA25E5
:1028B00085E29AE00E94112C2AE04EE06FE289E165
:1028C0000E94572941C080919A018230E9F5109207
:1028D0009A012AE04EE06FE289E10E945729809137
:1028E0003608882339F10E9418134FE16FE18FE118
:1028F0000E94021C62E082E00E94331D63E18CE0D2
:102900000E94DA258EE19AE00E94112C6FE186E0A8
:102910000E94DA2584E19AE00E94112C2FEF83EDCA
:1029200090E3215080409040E1F700C000000E94F9
:102930009F1202C00E944D1283E08093690880912B
:102940008E078F5F80938E0780918E07823049F4C7
:1029500010928F0760E08EE091E00E94B824109200
:102960008E070F9108950F9300E02DE34DE361E092
:1029700081E00E9461284FEF64E475E286E090E117
:102980000E94472562E086E00E94DA2580E69AE010
:102990000E94112C2DE04BE362E082E00E94572957
:1029A0000FEF20E04FE361E180E00E94612820E02A
:1029B0004FE36CE280E00E9461286EE285E10E94B4
:1029C000DA258EE59AE00E94112C6FE28AE10E94DE
:1029D000DA258BE59AE00E94112C6EE289E20E94D2
:1029E000DA2589E59AE00E94112C64E389E00E94CF
:1029F000E91D64E386E30F910C941E1EBF92CF92F3
:102A0000DF92EF92FF920F931F93CF93DF93C0E07B
:102A1000D0E094E2B92E6E014FEFC41AD40A8601B9
:102A2000000F111F04561E4FF801608171818C2F19
:102A30000E948E0D8C2F0E94A70DF80120813181FC
:102A4000BC9EC001BD9E900D1124AC014E59554F46
:102A50007A01FA01808591852817390738F0608559
:102A600071854FEF8C2F0E94571F18C08091010174
:102A700060910001869FB001112440E08C2F0E94DC
:102A8000571FF701608571854FEF8C2F0E94571FEC
:102A9000F801608171818C2F0E94F01EE601C63022
:102AA000D10509F0B8CFDF91CF911F910F91FF9021
:102AB000EF90DF90CF90BF900895FF920F931F93F8
:102AC000CF93DF9381E091E00E9446118093360816
:102AD00080913608811104C08FEF809328082BC0A5
:102AE00010922808C0E0D0E05DE0F52E2091280883
:102AF000CE01880F991FF29E800D911D11248F5FCA
:102B00009D4F0E944D118C01809137088B7F8093DF
:102B10003708B8018C2F0E948E0D8C2F0E94A70DB4
:102B20002196FE01EE0FFF1FE85DF74F1183008332
:102B3000C630D105D9F6DF91CF911F910F91FF904B
:102B4000089570E0660F771F9B014DE0849F200D74
:102B5000311D1124C9018F5F9D4F0C944D11262FFB
:102B600030E0220F331FB901EDE08E9F600D711D23
:102B70001124CB01BA018F5F9D4F0C9437110F9335
:102B80001F93CF93DF9300D01F92CDB7DEB71F9274
:102B90008F938BE897E09F938F938E010F5F1F4F6A
:102BA0001F930F930E94E552C8010E94E92B0F90DA
:102BB0000F900F900F900F900F900F900F900F901D
:102BC000DF91CF911F910F9108950F931F93CF9392
:102BD000DF9380919C012DE08202C001112480507E
:102BE0009E4F0E94461180939D01C0E0D0E01DE001
:102BF00020919C01CE01880F991F129F800D911D7D
:102C000011248F5F9D4F0E944D112196FE01EE0F02
:102C1000FF1FE456FE4F91838083C630D10541F7F4
:102C20004FEF64E475E286E090E10E94472500E002
:102C30002BE040E163E18DE20E94612863E18DE2D7
:102C40000E94DA2580919C018F5F0E94BF152CE0C5
:102C50004DE36EE181E00E9461286EE182E00E9416
:102C6000DA2580919D012BE0829FC00111248758B5
:102C7000974F0E94112C0E94FC1C0E94C81C0E94AD
:102C8000A71FC0E0D0E08091010160910001869F04
:102C9000B001112440E08C2F0E94571F8E010F5F5E
:102CA0001F4FF801EE0FFF1FE456FE4F6081718148
:102CB0008C2F0E94F01EE8010630110521F7DF91EC
:102CC000CF911F910F910895CF93C82F4FEF64E4D8
:102CD00075E286E090E10E94472563E083E00E9470
:102CE000DA2581E59AE00E94112CCF3F49F462E099
:102CF0008BE20E94DA258FE49AE00E94112C16C024
:102D00004FEF64E475E282ED9AE00E94472562E0AD
:102D10008BE20E94DA2581E08C0F0E94BF154FEFF5
:102D200064E475E286E090E10E9447252CE04BE3E5
:102D300062E082E00E94572963E182E00E94DA2586
:102D4000CF3F19F48AE49AE00EC02DE0C29FC00183
:102D5000112480509E4F0E9446112BE0829FC0019B
:102D600011248758974FCF910C94112CCF92DF925A
:102D7000EF92FF920F931F93CF93DF93D62E9DE098
:102D8000899F70011124C0E0D0E034E2C32E082FE7
:102D900010E08FEFE81AF80ACC9EF001CD9EF00DFE
:102DA0001124EE59F54F60857185CE01880F991F6A
:102DB0008E0D9F1D80509E4F0E9437112196C63068
:102DC000D10551F72DE0209FC001219F900D1124C6
:102DD0006D2D80509E4FDF91CF911F910F91FF90ED
:102DE000EF90DF90CF900C942211CF93DF93C0E04F
:102DF000D0E08C2F0E947C0D2196FE01EE0FFF1F6C
:102E0000E85DF74F91838083C630D10591F7DF915C
:102E1000CF91089580E090E044E29C012F5F3F4F06
:102E2000F901EE0FFF1FE85DF74F60817181489F48
:102E3000F001499FF00D1124EE59F54F858D968DC7
:102E40008617970730F0C9012630310531F781E048
:102E5000089580E008950F931F93CF93DF9380E050
:102E600090E0EC012196FE01EE0FFF1FE85DF74FA9
:102E7000008111810E947C0D0817190729F4CE01E9
:102E8000269779F781E001C080E0DF91CF911F9113
:102E90000F910895CF93C0E08C2F0E947C0D20915C
:102EA000010130910001239F9001112482179307A3
:102EB00028F0CF5FC63081F781E001C080E0CF917C
:102EC000089560E080E00E94A13FE2E9F7E083E03E
:102ED0008283138281E0818361E080EB91E00C9436
:102EE000B824CF93DF93C2E9D7E081E0898361E022
:102EF00080EB91E00E94B82460E080E00E94A13F56
:102F000084E08A831B82DF91CF9108950C9471171E
:102F100060E080E00E94A13FE0917306F0917406AA
:102F20000994E0916F06F0917006099560E080E0E9
:102F30000C94A13FE0916D06F0916E06099560E05A
:102F400080E00C94A13F8091920794E28902900165
:102F50001124F901E558F54F908191609083F901B2
:102F6000EE59F54F90A1911102C00C94A30F0C944F
:102F70007A1061E082E09AE00E94D83E60E080E052
:102F80000C94A13F60E082E09AE00E94D83E60E0AD
:102F900080E00C94A13F8091920794E28902900115
:102FA0001124F901E558F54F908191609083F90162
:102FB000EE59F54F90A1911102C00C94C70E0C94DC
:102FC00024108091920794E28902F0011124E558BF
:102FD000F54F9081916090830C94670E80919207D9
:102FE00094E28902F0011124E558F54F9081916037
:102FF00090830C942C0E0F93CF93C82F84E0C89F1E
:10300000F0011124ED5EF74F8081816080834FEFE6
:1030100064E475E286E090E10E94472560E08C2F31
:103020000E94954A0FEF20E04DE36EE281E00E949E
:1030300061288C2F0E947C0DCF910F910C94C00DB4
:10304000CF93DF934FE16FE18FE10E94021CC2E951
:10305000D7E088810E94FB17198260E080EB91E045
:103060000E94B8248FEF8A831B82DF91CF9108954D
:103070000F9300E02DE34DE361E081E00E946128C1
:1030800082E09AE00E94663E82E09AE00E948A3ED8
:1030900082E09AE00F910C94CE3EE0917106F0919F
:1030A0007206099580916906811102C061E006C02F
:1030B00080916906813021F460E080E00C94A13FAA
:1030C00008950C944D180F93CF9390919207890F08
:1030D0008093920787FF07C080E00E94F61185E089
:1030E0008093920718C0863034F085E00E94F61174
:1030F0001092920710C0892F0E94F61100E02DE374
:103100004DE361E081E00E94612880919207CF91B8
:103110000F910C94FB17C1E0C093930761E080EB23
:1031200091E00E94B824C09394071092950783E021
:1031300080936908CF910F91089560E080E00E942C
:10314000A13F8FEF0C94631860E080E00E94A13FE4
:1031500081E00C946318CF93DF93C2E9D7E08881B4
:103160000E94F61182E08093100A1A821B8283E08B
:103170008093690861E080E0DF91CF910C94A13FDA
:10318000CF92EF92FF920F931F93CF93DF93809193
:103190009407811161C080919507811158C081E029
:1031A000809395078091370884608093370800E00A
:1031B0002FE34FEB60E080E00E9461280FEF2FE3E8
:1031C0004FE360E080E00E94F4282FE34EE760E0E8
:1031D00081E40E94F4280E94A71F0E94FC1C0E9408
:1031E000C81CC0E0D0E014E21C9FF0011D9FF00D50
:1031F0001124EE59F54F608571854FEF8C2F0E9499
:10320000571F2196C630D10579F71092920780E0BA
:103210000E94FB178DE0C82E96E0E92E90E1F92E72
:103220000FE32FE340E060E082E09AE00E94503E2E
:1032300025E24BE069E778E082E09AE00E94713E87
:103240001092930760E080EB91E00E94B8248FEF2A
:10325000809394071092950780919407813009F02C
:103260004CC09091950791111CC0809395074FE138
:103270006FE18FE10E94021C63E186E00E94DA2583
:1032800082EB9AE00E94112C6FE18AE00E94DA251D
:1032900089EA9AE00E94112C40E062E082E00E94FC
:1032A000E63D80919507813041F580916A0687FD62
:1032B00024C080916A06813081F482E08093930774
:1032C00062E080EB91E00E94B8240E9438188FEFF2
:1032D00080939407109295070EC080916A06882308
:1032E00021F080916A06833041F482E08093940754
:1032F000109295078FEF80936A0680919407823031
:10330000E9F580919507811115C081E080939507BB
:103310004FE16FE18FE10E94021C69E181E10E94AF
:10332000DA2582EA9AE00E94112C40E062E082E015
:103330000E94E63D80919507813001F580916A06F3
:1033400087FD1CC080916A06813059F482E0809329
:10335000100A109294071092950783E080936908F1
:103360000AC080916A06882321F080916A06833022
:1033700029F40E9420188FEF80936A0680919407A9
:10338000833009F04AC08091950781111DC081E00A
:10339000809395074FE16FE18FE10E94021C63E18A
:1033A00086E00E94DA2589E99AE00E94112C6FE1FB
:1033B0008AE00E94DA258EE89AE00E94112C40E013
:1033C00062E082E00E94E63D80919507813029F518
:1033D00080916A0687FD21C080916A06813021F4C0
:1033E0000E9420188FEF17C080916A06882321F071
:1033F00080916A06833089F482E08093930762E0CB
:1034000080EB91E00E94B8240E9438188FEF8093DF
:1034100094071092950780936A06809194078430F0
:1034200009F04DC08091950781111DC081E0809306
:1034300095074FE16FE18FE10E94021C63E186E096
:103440000E94DA2585E89AE00E94112C6FE186E05F
:103450000E94DA258AE79AE00E94112C40E062E09F
:1034600082E00E94E63D80919507813041F5809190
:103470006A0687FD24C080916A06813039F485E0B0
:1034800080939407109295078FEF17C080916A067A
:10349000882321F080916A06833089F482E080934A
:1034A000930762E080EB91E00E94B8240E943818F4
:1034B0008FEF809394071092950780936A0680910E
:1034C0009407853009F056C08091950781111DC081
:1034D00081E0809395074FE16FE18FE10E94021C2C
:1034E00063E186E00E94DA2582E79AE00E94112CCF
:1034F0006FE18AE00E94DA2589E69AE00E94112CA9
:1035000040E062E082E00E94E63D809195078130D4
:1035100089F580916A0687FD2DC080916A06813009
:1035200001F580913608843100F582E09AE00E942E
:103530001F3F682F809136080E94B616809136088A
:103540008F5F809336086091360881E091E00E9499
:103550002211809136088150809328080E94F51628
:1035600004C080916A06811105C00E9420188FEF67
:1035700080936A06DF91CF911F910F91FF90EF909A
:10358000CF9008958F929F92AF92BF92EF92FF9249
:103590000F931F93CF93DF93082F10E094E2899F3E
:1035A000F0011124EE59F54F25853685408551856A
:1035B000241B350B318B208B20893189232B09F477
:1035C00084C02089318937FF1CC08FEF87878089AD
:1035D0009189919581959109918B808B878D81112E
:1035E00031C025853685858D968D8217930750F1DC
:1035F000258D368D80899189821B930B918B808BD1
:1036000021C091E09787978D91111CC0408551850D
:10361000258D368D24173507A8F0458D568D2089C8
:103620003189241B350B318B208B20853185232B51
:1036300049F49091370892FF05C0658D768D4FEF64
:103640000E94571F84E2809FE001819FD00D1124CA
:103650008E010E59154FF801638D748DE088F18845
:1036600080E090E00E9421504B015C01B701FF0C0B
:10367000880B990B0E9423509B01AC01C501B4013A
:103680000E94804F0E9445510E94F24F80E090E0DE
:103690000E94215021E030E040EA50E40E94804F37
:1036A0000E9445510E94F24FF801758B648B178A76
:1036B000168A138A128AC658D54F888181608883FA
:1036C00080913708816080933708DF91CF911F91F7
:1036D0000F91FF90EF90BF90AF909F908F900895C3
:1036E000CF93DF93C82FD0E094E2899FF00111249B
:1036F000EE59F54F268937892F5F3F4F378B268B41
:103700004489558924173507A0F0178A168A22891B
:1037100033892F5F3F4F338B228B978520853185EF
:10372000290F311D97FD3A953187208767850E94C3
:10373000760D84E28C9FF0018D9FF00D1124DF0146
:10374000AE59B54F52962D913C91539750968D910D
:103750009C9151972817390728F0E658F54F80813A
:103760008E7F8083DF91CF91089580E090E024E206
:10377000289FF001299FF00D1124E658F54F308164
:1037800030FD06C001968630910591F781E00895DD
:1037900080E00895DF98D79AD49ADC98E8E0F8E0C2
:1037A00082E08083178208950F931F93CF93DF9356
:1037B000C82FD62F102F00E00E9461286D2F8C2F6C
:1037C0000E94DA2580E3810FDF91CF911F910F9145
:1037D0000C94EA2AEF920F93E62FF0E0BF01429F8C
:1037E00060197109112477FF02C06F5F7F4F7595D3
:1037F0006795611102C0800F02C08E0D860F0F9178
:10380000EF900895FF920F931F93CF93DF93182F9C
:10381000141BC1E0D62FD81B6D2F680F811759F0EC
:10382000FF24FA94F80E00E02C2F4C2F0E94F4286D
:10383000CE5F8F2DF1CFDF91CF911F910F91FF9030
:1038400008950F93282F30E044E2849FC001112493
:10385000FC01EE59F54F408551858091000190E0C3
:103860004817590770F1808591856091000170E0DB
:103870000E949E51892B29F58085918560910001D8
:1038800070E00E949E51F901EE0FFF1FE20FF31F3F
:10389000E05DFD4F66838681815086838091370885
:1038A00082FF0FC0609101018681615F681BF90191
:1038B000E85BFD4F80810FEF20E046E08E5F0E94C5
:1038C00061280F9108950F93282F30E094E2899F8B
:1038D000F0011124EE59F54F80859185609100012A
:1038E00070E00E949E51892B11F580859185609131
:1038F000000170E00E949E51F901EE0FFF1FE20FE0
:10390000F31FE05DFD4F66838091370882FF0FC093
:10391000609101018681615F681BF901E85BFD4FE1
:10392000808100E020E046E08E5F0E9461280F91D8
:1039300008950F9390E0FC01EE0FFF1FE80FF91FB1
:10394000DF01A85CBD4F2C9120FF20C02C912E7F61
:103950002C93E05DFD4F378126813217B9F0368117
:103960002781231798F42091370822FF0FC0609118
:1039700001012781625F621BFC01E85BFD4F8081D2
:1039800000E020E046E08E5F0E9461280F910895DC
:103990000F93209101012D5F0FEF4AE06EE089E463
:1039A0000E94F428209101012D5F4AE06EE08DE530
:1039B0000E94F428209101012D5F4AE06EE081E72A
:1039C0000E94F428209101012D5F4AE06EE085E815
:1039D0000E94F428209101012D5F4AE06EE089E900
:1039E0000E94F428209101012D5F4AE06EE08DEAEB
:1039F0000E94F4280F9108954FEF64E475E286E089
:103A000090E10E94472562E089E40E94DA258FEC6C
:103A10009AE00E94112C62E08DE50E94DA258CEC80
:103A20009AE00E94112C62E081E70E94DA2589EC7D
:103A30009AE00E94112C62E085E80E94DA2586EC6B
:103A40009AE00E94112C62E089E90E94DA2583EC59
:103A50009AE00E94112C62E08DEA0E94DA2580EC47
:103A60009AE00C94112CEF920F931F93CF93DF9356
:103A7000D82FC62FEE24EA9403E02BE34BE30E94F9
:103A80000E2A11E01C0F02E029E349E3612F81E0D7
:103A90008D0F0E940E2A4FEF64E475E286E090E1FC
:103AA0000E944725612F8FE08D0F0E94DA258AEB57
:103AB0009AE00E94112C62E06C0F2AE047E382E05A
:103AC0008D0FDF91CF911F910F91EF900C9457299B
:103AD000EF920F931F93CF93DF93C82FD62F11E050
:103AE000160FEE24EA9403E026E046E0612F8DEF06
:103AF0008C0F0E940E2A00E020E042E0612F8FEF41
:103B00008C0F0E9461280FEF23E040E06D2F8C2F77
:103B10000E946128DF91CF911F910F91EF9008953E
:103B20000F93CF93DF93D82FC62F4FEF0E94F0292A
:103B300061E06C0F0FEF20E042E08FEF8D0F0E94ED
:103B4000612862E06C0F20E044E08EEF8D0F0E9450
:103B5000612863E06C0F20E046E08DEF8D0F0E943E
:103B6000612864E06C0F20E048E08CEF8D0F0E942C
:103B70006128DF91CF910F9108950F93CF93DF9339
:103B8000D82FC62F0FEF20E048E00E94612861E0A7
:103B90006C0F20E046E081E08D0F0E94612862E01A
:103BA0006C0F20E044E082E08D0F0E94612863E00A
:103BB0006C0F20E042E083E08D0F0E94612864E0FA
:103BC0006C0F4FEF84E08D0FDF91CF910F910C942C
:103BD000F0290F93CF93DF93D82FC62F4FEF0E947A
:103BE000F0296FEF6C0F0FEF22E040E081E08D0FC6
:103BF0000E9461286EEF6C0F24E040E082E08D0FA0
:103C00000E9461286DEF6C0F26E040E083E08D0F8D
:103C10000E9461286CEF6C0F28E040E084E08D0F7B
:103C20000E9461286BEF6C0F2AE040E085E08D0F69
:103C30000E946128DF91CF910F9108950F93CF9348
:103C4000DF93C82FD62F6BEF6D0F0FEF2AE040E008
:103C50008BEF8C0F0E9461286CEF6D0F28E040E025
:103C60008CEF8C0F0E9461286DEF6D0F26E040E015
:103C70008DEF8C0F0E9461286EEF6D0F24E040E005
:103C80008EEF8C0F0E9461286FEF6D0F22E040E0F5
:103C90008FEF8C0F0E9461284FEF6D2F8C2FDF91DB
:103CA000CF910F910C94F0290F93CF93DF93D82FDE
:103CB000C62F4FEF81E08D0F0E94F0296FEF6C0F40
:103CC0000FEF22E040E082E08D0F0E9461286EEF4E
:103CD0006C0F24E040E083E08D0F0E9461286DEFBF
:103CE0006C0F26E040E084E08D0F0E946128DF9198
:103CF000CF910F9108950F93CF93DF93D82FC62FB5
:103D00004FEF8FEF8D0F0E94F0296FEF6C0F0FEFC9
:103D100022E040E08EEF8D0F0E9461286EEF6C0F65
:103D200024E040E08DEF8D0F0E9461286DEF6C0F55
:103D300026E040E08CEF8D0F0E946128DF91CF914B
:103D40000F9108950F93CF93DF93D82FC62F40E0A4
:103D500081E08D0F0E94F0296FEF6C0F00E022E0F0
:103D600040E082E08D0F0E9461286EEF6C0F24E02E
:103D700040E083E08D0F0E9461286DEF6C0F26E01C
:103D800040E084E08D0F0E946128DF91CF910F9178
:103D900008950F93CF93DF93D82FC62F40E08FEF76
:103DA0008D0F0E94F0296FEF6C0F00E022E040E0E1
:103DB0008EEF8D0F0E9461286EEF6C0F24E040E0C3
:103DC0008DEF8D0F0E9461286DEF6C0F26E040E0B3
:103DD0008CEF8D0F0E946128DF91CF910F91089594
:103DE000CF92DF92EF92FF920F931F93CF93DF93C7
:103DF000282FCB0140910001642F70E00E949E515A
:103E0000D62E662309F44AC080910101805FF82E06
:103E1000F61A822F90E06150FC01EE0FFF1FE80FB1
:103E2000F91FE05DFD4F6683CF2DEE24EA948C01EF
:103E3000085B1D4FCE2CC094F801D0814E2D6C2F05
:103E400082E08D0F0E94F0294C2D6C2F83E08D0FA6
:103E50000E94F0294E2D6C2F84E08D0F0E94F029D6
:103E60004C2D6C2F85E08D0F0E94F0294E2D6C2F6C
:103E700086E08D0F0E94F0294C2D6C2F87E08D0F6E
:103E80000E94F0294E2D6C2F88E08D0F0E94F029A2
:103E9000CF5FEC2C8C2F8F198D1560F2DF91CF91B5
:103EA0001F910F91FF90EF90DF90CF9008950F93A7
:103EB0001F93CF93DF93C82FCB0120910001622F76
:103EC00070E00E949E511FEF160FD0E0662379F03C
:103ED000862F042F60910101605F681BFE01E85B83
:103EE000FD4F8081212F46E08E5F0E946128CE0128
:103EF000880F991FC80FD91FC05DDD4F1E83DF914A
:103F0000CF911F910F910895282F30E094E2899F5F
:103F1000F0011124EE59F54F858D968D40910001E9
:103F200050E08417950790F06091000170E00E94C6
:103F30009E51862F60910101681B605FF901E85B6B
:103F4000FD4F80814FEF81500C94F0290895CF935D
:103F5000C0E08C2F0E94841FCF5FC630D1F7CF9175
:103F600008951F93CF93DF93182FD62FC42F0E944D
:103F70000720812F8E7F0E9448208D2F0E9439209C
:103F80008C2F0E943920DF91CF911F910C94FF1F3D
:103F9000FF920F931F93CF93DF93F62E8A01D22FB8
:103FA000C82FCE7F0E9407208C2F0E9448208F2D83
:103FB0000E9439200E941B208C2F81600E94482083
:103FC000C0E0CF5FCD1710F481E001C080E00E9417
:103FD000622080917300F80181938F01CD1788F3DF
:103FE000DF91CF911F910F91FF900C94FF1F90983C
:103FF00091981092710082E180937000089584E995
:10400000809374008091740084FDFCCF089584EA4D
:10401000809374008091740087FFFCCF80917100C1
:10402000887F883031F0809171000E94FF1F80E00E
:10403000089581E0089584EA80937400809174006B
:1040400087FFFCCF80917100887F803131F08091B3
:1040500071000E94FF1F80E0089581E00895809321
:10406000730084E8809374008091740087FFFCCF14
:1040700008950E942F2080917100887F883231F04E
:10408000809171000E94FF1F80E0089581E00895F3
:10409000CF9380FD02C0C8E101C0C0E40E942F2080
:1040A00080917100887F90E02C2F30E08217930779
:1040B00031F0809171000E94FF1F80E001C081E01B
:1040C000CF910895882329F084EC8093740020E533
:1040D00004C084E88093740028E58091740087FF11
:1040E000FCCF80917100887F90E030E082179307C9
:1040F00031F0809171000E94FF1F80E0089581E0FF
:1041000008958091960781112DC080E090E0FC0118
:1041100063E0EE0FFF1F6A95E1F7E95BF74F20813F
:1041200021FD20C001968430910589F780E090E060
:10413000FC0153E0EE0FFF1F5A95E1F7E95BF74FE3
:10414000208122FF06C020812B7F20832081277FB2
:10415000208301968430910559F7809196078F5FEF
:104160008093960780919607813049F520E030E0F2
:10417000F90143E0EE0FFF1F4A95E1F7E95BF74FC6
:10418000908191FD1AC02F5F3F4F2430310581F798
:1041900020E030E0F90193E0EE0FFF1F9A95E1F780
:1041A000E95BF74F908195FD0AC02F5F3F4F2430A8
:1041B000310581F71092960708951092960780E0D6
:1041C0000895D99AD198DA9AD298DB9AD398D89A46
:1041D000D09808954F925F926F927F928F929F92A4
:1041E000AF92BF92CF92DF92EF92FF920F931F9305
:1041F000CF93DF9389B3869581709091470880FBB8
:1042000090F99093470889B382FB882780F99091B1
:104210004F0880FB90F990934F0889B383FB882760
:1042200080F99091570880FB90F99093570899B3C3
:1042300080915F0890FB80F980935F0820E030E078
:10424000C90163E0880F991F6A95E1F7FC01EE5BF5
:10425000F74F4081411107C0DC01A95BB74F8C913A
:1042600080FD37C020C040814130A1F441814F5FC3
:104270004183453070F11182DC01A95BB74F8C910D
:1042800080FF04C080818150808323C08C91826034
:104290008C9309C04081423049F4DC01A95BB74FDF
:1042A0008C9180FF16C080818F5FEECF40814330BC
:1042B00081F441814F5F4183453058F01182DC0128
:1042C000A95BB74F8C9180FFDDCF8C918D7F8C9354
:1042D00010822F5F3F4F2430310509F0B1CFC12C40
:1042E000D12CAA24A39403E0702E84E0682E95E0DC
:1042F000592E22E0B22E36E0932E47E0842E58E06D
:10430000452EE60113E0CC0FDD1F1A95E1F7FE0103
:10431000EE5BF74F828181113DC08781882369F070
:10432000E781F0E0E25BFD4F8081813031F4FE01F6
:10433000E95BF74F808184FF2DC0DE01A95BB74F99
:104340008C9181FB992790F981FF24C0FE01E85BE5
:10435000F74F808180FFD2C18C9184608C938081E3
:10436000FE01EE5BF74F83FFC7C15282DE01A95BFE
:10437000B74F8C9180628C93FE01EE5BF74F878183
:10438000882341F0E781F0E0E25BFD4FA0828C9151
:1043900080618C93FE01EE5BF74F8281853060F087
:1043A0008281883048F4DE01A95BB74F8C9181FD92
:1043B00003C014821382B282FE01EE5BF74F82814A
:1043C000853071F483819481019694838383209155
:1043D000500230E08217930718F014821382928201
:1043E000DE01AE5BB74F12968C911297863059F46E
:1043F000FE01E95BF74F808182FD05C0808184600A
:10440000808312968C92FE01EE5BF74F828187309B
:1044100071F4838194810196948383832091510266
:1044200030E08217930718F0148213829282DE0123
:10443000AE5BB74F12968C911297843059F4FE01FF
:10444000E95BF74F808181FD05C0808184608083B6
:104450001296BC928E010E5B174FF8018281833059
:1044600009F050C083819481019694838383CE01A7
:10447000895B974F7C01FC01808181FD1BC0F801A5
:104480006381748180E090E00E9421502FEF3FEF24
:1044900047E453E40E947B4F181664F0F80114823D
:1044A0001382F7018081846080838081877F80838D
:1044B000F801B2828E010E5B174FF801638174819F
:1044C00080E090E00E9421502FEF3FEF47E453E45B
:1044D0000E94D3501816B4F4F80114821382FE011E
:1044E000E95BF74F8081846080838081886080836E
:1044F000FE01E85BF74F8081F80183FD02C0A282D4
:1045000001C08282FE01EE5BF74F8281813031F47F
:10451000DE01A95BB74F8C9181FFB282FE01EE5B99
:10452000F74F8281823031F4DE01A95BB74F8C9165
:1045300082FF4282FE01EE5BF74F82818830B9F440
:104540008781882359F0E781F0E0E25BFD4F10821C
:10455000FE01E95BF74F80818F7E8083FE01EE5B79
:10456000F74F1282C95BD74F88818F7D8883FFEF19
:10457000CF1ADF0A34E0C316D10409F0C2CE80910D
:104580006308813009F0AAC08091E807811109C051
:104590000E948120882329F08091E8078F5F809313
:1045A000E8078091E807813009F098C01092E80789
:1045B000809164088330C1F5809197078150809382
:1045C000970780E090E020919707FC0144E0249F4A
:1045D000E00DF11D1124EE0FFF1FE956F84F218168
:1045E000DC01C3E0AA0FBB1FCA95E1F7AE5BB74F72
:1045F00016962C93169720919707FC0134E0239F81
:10460000E00DF11D1124EE0FFF1FE756F84F20813A
:1046100017962C93019684309105A9F68091630832
:104620008F5F809363085AC080916408823091F54F
:1046300080E090E030919707DC0163E0AA0FBB1F98
:104640006A95E1F7AE5BB74F16962C911697FC0171
:1046500044E0349FE00DF11D1124EE0FFF1FE956D9
:10466000F84F21833091970717962C91FC0144E075
:10467000349FE00DF11D1124EE0FFF1FE756F84F98
:104680002083019684309105A9F6809197078F5F6A
:104690008093970780E090E0E0916508F0916608CC
:1046A0009C01220F331FE20FF31F4081FC0153E0F6
:1046B000EE0FFF1F5A95E1F7EE5BF74F46834091EF
:1046C000650850916608DA01A20FB31F11962C916C
:1046D0002783019684309105F9F6A0CF8091620876
:1046E0008130E1F40E9481208823C1F0809162082A
:1046F0008F5F8093620812C0928338CE808181FFE1
:1047000005C0FE01EE5BF74F628230CE808182FFF2
:104710002DCEFE01EE5BF74F728228CEDF91CF9156
:104720001F910F91FF90EF90DF90CF90BF90AF90CF
:104730009F908F907F906F905F904F900895E2E6EA
:10474000F8E08283748363839EEF909369080895F1
:10475000809169088E3F99F480916308811105C0AA
:10476000809163088F5F8093630880916308823033
:1047700009F051C01092630883E08093690880912A
:104780006908811148C080915F0881FD18C080913F
:10479000470885FF03C010926A080FC080914F0838
:1047A00085FF04C081E080936A0833C08091570878
:1047B00085FF05C082E080936A0881E02AC080916D
:1047C0005F0882FB992790F982FF12C090930F082F
:1047D000E0918308F0918408099580915F088B7FB0
:1047E00080935F088091690887FD15C083E011C040
:1047F00080915F0881FF68C08091470885FD08C0EF
:1048000080914F0885FD04C08091570885FF5CC0EA
:1048100082E08093690880916908813009F054C072
:104820008091470882FB992790F982FF0CC0809104
:1048300047088B7F8093470890930F08E0916B089F
:10484000F0916C082EC080914F0882FB992790F957
:1048500082FF0CC080914F088B7F80934F0890930C
:104860000F08E0917308F09174081BC080915708FD
:1048700082FB992790F982FF15C0809157088B7FA2
:104880008093570890930F088091570883FD05C0C7
:10489000E0917B08F0917C0804C0E0917D08F091E4
:1048A0007E0809958091690887FD0EC0E0916A082D
:1048B00088E0E89FF0011124E95BF74F808185FDD6
:1048C00003C083E080936908809169088230B9F55C
:1048D00080915F0881FB992790F981FF2DC090930B
:1048E0000F088091470882FF0AC0809147088B7F9C
:1048F00080934708E0916F08F091700809958091C6
:104900004F0882FF0AC080914F088B7F80934F0829
:10491000E0917708F091780809958091570885FF14
:104920000EC0809157088B7F80935708E0917F08D5
:10493000F0918008099503C083E080936908809115
:1049400069088330A1F480916208811105C08091CB
:1049500062088F5F8093620880916208823021F440
:10496000109262081092690881E080930F08089500
:10497000CF93DF93DC0128E0629FA00DB11D1124CD
:10498000EBE6F8E08D919D91918380835E968D9109
:104990009C915F9793838283DE968D919C91DF97A4
:1049A00095838483ED01C25ADF4F88819981978373
:1049B0008683389688E0EB38F80721F7DF91CF91AE
:1049C0000895ABE6B8E020E2829FC0011124FC010B
:1049D000E557F74F8D919C911197918380831296A3
:1049E0008D919C9113979383828314968D919C91C2
:1049F00015979583848316968D919C91179797832D
:104A000086831896389688E0AB38B80719F708956A
:104A100020E2829FC0011124FC01E557F74FABE66D
:104A2000B8E08081918111969C938E9382819381CD
:104A300013969C938E9312978481958115969C93DF
:104A40008E9314978681978117969C938E931697D1
:104A50003896189688E0AB38B80719F70895CF93C1
:104A6000DF93CBECD9E088810E94E12488818F5FBD
:104A70008883DF91CF910895EBECF9E0808181503C
:104A800080830C9408250895FC01849108959093E7
:104A9000D3098093D2097093D1096093D0094093D0
:104AA000CC090895CF93DF931F92CDB7DEB7611184
:104AB0000BC09FB79093D409F894909165009B7FA9
:104AC00090936500DE9A0CC0613061F49FB79093BB
:104AD000D409F89490916500946090936500DE98F5
:104AE000DD9A0DC0623071F49FB79093D409F894A9
:104AF00090916500946090936500DE9ADD989091A6
:104B0000D4099FBF97989FB79093D409F894909138
:104B100065009E7F909365009091D4099FBF9FEFA1
:104B200094BB85BB000000000000000000000000F6
:104B30000000000000000000000000008FB780931C
:104B4000D409F8948091650082608093650080911B
:104B5000D4098FBF0000000000000000000000002A
:104B600000000000000000000000000000008FB7FF
:104B70008093D409F894809165008D7F80936500BF
:104B80008091D4098FBF19828981883020F489816E
:104B90008F5F8983F9CF0000000000000000000053
:104BA0000000000000000000000015BA0F90DF9127
:104BB000CF910895CF93803CC0F4603408F060E05A
:104BC0008093CD096093CE0966956695669560934E
:104BD000CF0990EC980F903430F0982F87FF0EC0DB
:104BE000905862E00CC061E00AC01092CD096034B8
:104BF000D0F01092CE091092CF0990E060E0892F9A
:104C000080640E945225C091CF09C86B60E08C2F50
:104C10000E94522561E08C2F0E94522562E08C2F69
:104C2000CF910C9452256093CE0966956695669552
:104C30006093CF09E2CF1F93CF93DF931F92CDB73D
:104C4000DEB7182F15BA14BA8091CD09803458F404
:104C50008FB78093D409F894809165008B7F8093FF
:104C60006500DE9A0DC08054803460F48FB7809365
:104C7000D409F89480916500846080936500DE9883
:104C8000DD9A0BC08FB78093D409F89480916500AA
:104C9000846080936500DE9ADD988091D4098FBF8F
:104CA0008091CD09803429F4112319F061E00E942C
:104CB00052258091CD09803831F4112321F062E032
:104CC00080E40E945225979A8FB78093D409F89474
:104CD00080916500816080936500809165008260AD
:104CE000809365008091D4098FBF00000000000010
:104CF00013B38FB78093D409F894809165008D7FAA
:104D0000809365008091D4098FBF19828981883092
:104D100020F489818F5F8983F9CF8FEF84BB609105
:104D2000CE098091CD090E94DA258091E907811191
:104D30001095812F0F90DF91CF911F9108950F93C0
:104D40001F93CF93DF93CDB7DEB728970FB6F894B4
:104D5000DEBF0FBECDBF082F8091CD09803C08F08B
:104D6000A5C1803458F48FB78093D409F89480910A
:104D700065008B7F80936500DE9A0DC0805480347F
:104D800060F48FB78093D409F894809165008460B3
:104D900080936500DE98DD9A0BC08FB78093D409AD
:104DA000F89480916500846080936500DE9ADD98B8
:104DB0008091D4098FBF8091CD09803419F461E0CE
:104DC0000E9452258091CD09803821F462E080E470
:104DD0000E945225979A8FB78093D409F8948091B6
:104DE00065008E7F809365008091D4098FBF1FEF8F
:104DF00014BB8091CE0987708F838F81882309F43B
:104E000007C18BB380768E8382B38D8380916500DA
:104E100087708C8381E00E941B2680E00E941B2605
:104E200088878D8182BB8FB78093D409F894809155
:104E300065009C81887F892B809365008BB39E8160
:104E40008F79892B8BBB8091D4098FBF14BB10E065
:104E50008F812885A80102C0440F551F8A95E2F76B
:104E6000CA01822B88878091E907882319F08885F9
:104E700080958887888585BB0000000000000000C1
:104E80000000000000000000000000000000000022
:104E90008FB78093D409F8948091650082608093E5
:104EA00065008091D4098FBF000000000000000061
:104EB00000000000000000000000000000000000F2
:104EC00000008FB78093D409F894809165008D7F9E
:104ED000809365008091D4098FBF1B828B818830BD
:104EE00020F48B818F5F8B83F9CF000000000000DE
:104EF00000000000000000000000000000006091C1
:104F0000CE09685F8091CD090E94DA2581E00E9478
:104F10001B2680E00E941B2688878D8182BB8FB76D
:104F20008093D409F894909165008C81987F877064
:104F3000892B809365009BB38E819F798076892B26
:104F40008BBB8091D4098FBF8FEF84BB3F812885B5
:104F500088E090E0831B910902C0159507958A951A
:104F6000E2F7022B08878091E907882319F08885EA
:104F700080958887888585BB0000000000000000C0
:104F80000000000000000000000000000000000021
:104F90008FB78093D409F8948091650082608093E4
:104FA00065008091D4098FBF000000000000000060
:104FB00000000000000000000000000000000000F1
:104FC00000008FB78093D409F894809165008D7F9D
:104FD000809365008091D4098FBF1A828A818830BE
:104FE00020F48A818F5F8A83F9CF000000000000DF
:104FF00000000000000000000000000000006091C0
:10500000CE0968508091CD098F5F0E94DA254DC08E
:105010008091E9078111009505BB000000000000A8
:105020000000000000000000000000000000000080
:1050300000008FB78093D409F89480916500826056
:10504000809365008091D4098FBF000000000000AC
:105050000000000000000000000000000000000050
:10506000000000008FB78093D409F8948091650008
:105070008D7F809365008091D4098FBF19828981CB
:10508000883020F489818F5F8983F9CF0000000088
:105090000000000000000000000000000000000010
:1050A0008091CD098F5F8093CD0915BA28960FB6F0
:1050B000F894DEBF0FBECDBFDF91CF911F910F914E
:1050C00008959F92AF92BF92CF92DF92EF92FF929C
:1050D0000F931F93CF93DF93182FD42FAA24A39459
:1050E000A20E862F8770C62FC81BCA2CD12C28E091
:1050F00030E0A901481B5109C416D5066CF42C19DF
:105100003D094FEF50E07A0102C0F594E7942A95EB
:10511000E2F79E2DBA2C04C098E0B92EB81A9FEF82
:10512000E92E01C0EE0C8A95EAF79E2C6C2F812F98
:105130000E94DA25F12CE09481E00E941B2680E099
:105140000E941B260F3F11F4892901C08E210E9465
:105150009F26F394DF1580F7BC1A2B2D2C0F822F7E
:1051600090E0AC01495F5F4F4C155D056CF4C85F82
:105170006C2F812F0E94DA25F12C802F0E949F2610
:10518000F394DF15D0F7E9CF2A1510F5C81AD90A1C
:105190008FEF90E001C0880FCA94EAF7F82EF094E0
:1051A00068E06C0F812F0E94DA25C0E01F2D10955A
:1051B00081E00E941B2680E00E941B260F3F11F415
:1051C0008F2901C081230E949F26CF5FDC1780F7C3
:1051D000DF91CF911F910F91FF90EF90DF90CF90D3
:1051E000BF90AF909F900895EF92FF920F931F93FF
:1051F000CF93DF93C82FD62FF42EE22E20E00E940B
:1052000061286D2F6E0D20E04F2D8C2F0E9461289C
:105210002E2D40E06D2F8C2F0E9461282E2D40E016
:105220006D2F8C2F8F0D0E946128DF91CF911F91E0
:105230000F91FF90EF9008950F93EDECF9E010823D
:10524000118212828093E907E4E6F0E080818160B8
:1052500080838081826080838081846080838F9A54
:10526000D49AD69AD59A60E08FE30E94522561E0E5
:105270008FE30E94522562E08FE30E94522560E096
:1052800080EC0E94522561E080EC0E94522562E091
:1052900080EC0E94522500E02FE34FEB60E080E0BD
:1052A0000E94612860E080E00F910C94DA259F92C3
:1052B000AF92BF92CF92DF92EF92FF920F931F9324
:1052C000CF93DF93E82EF42EDD24D394D20E862FD5
:1052D0008770C62EC81A0D2D10E028E030E0A90115
:1052E000481B5109041715075CF4201B310BCFEF45
:1052F000D0E002C0D595C7952A95E2F7BD2C04C031
:10530000C8E0BC2EB81ACFEF01C0CC0F8A95EAF7DF
:105310009C2E6C2D8E2D0E94DA25A12CDC2FD09591
:1053200081E00E941B2680E00E941B26982F90950A
:1053300099218D23892B0E949F26A394FA1480F72C
:10534000DC2DCB2DCC192C2F2D0F822F90E0AC0112
:10535000495F5F4F401751079CF4D85F6D2F8E2D2A
:105360000E94DA25C12C81E00E941B2680E00E9469
:105370001B2680950E949F26C394FC14A0F7E3CFC0
:105380002D1510F5081B190B8FEF90E001C0880F49
:105390000A95EAF7C82FC09568E06D0F8E2D0E9420
:1053A000DA25D0E01C2F109581E00E941B2680E0BA
:1053B0000E941B26982F90959C238123892B0E9465
:1053C0009F26DF5FFD1680F7DF91CF911F910F9130
:1053D000FF90EF90DF90CF90BF90AF909F90089597
:1053E000CF93DF93C62FD42F687F0E94DA2581E008
:1053F0000E941B2680E00E941B26C77021E030E03F
:1054000001C0220FCA95EAF7DF3F11F4822B02C0D8
:1054100020958223DF91CF910C949F262F923F926B
:105420004F925F926F927F928F929F92AF92BF92B4
:10543000CF92DF92EF92FF920F931F93CF93DF9360
:10544000CDB7DEB72A970FB6F894DEBF0FBECDBF3B
:10545000182FF62E242E622E202F30E03A8729872F
:10546000C901880F991F23E030E06901C81AD90AE1
:10547000702E710E312F340F3C83301B3B83932EE3
:10548000872CA12CB12C302E3F0C8F2D811B8E83AD
:105490009F2D960D9D83901B9F83862D841B8F0DC2
:1054A000811B88874E2D432C2985421A642D882D17
:1054B0000E94F0294E2D5E80580C652D372D898570
:1054C000381B3983832F0E94F0294E2D642D892D9E
:1054D0000E94F0294E2D652D9B812985920F9A837C
:1054E000892F0E94F0294E2D4F803985430E642D5F
:1054F000892D0E94F0294E2D5884590C652D8A81E2
:105500000E94F0294E2D642D882D0E94F0294E2DE9
:10551000652D89810E94F029C501D7FE08C0880F3A
:10552000991F880F991F0696C80ED91E0FC029858E
:105530003A85821B930B880F991F880F991F0A9633
:10554000C80ED91E215031093A8729873FEFA31A87
:10555000B30A8A94939489859A858A159B050CF0E1
:10556000A1CF000F0983201A2A820E2D20E0422DA0
:105570006F2D872D0E94612820E04A816D81872D43
:105580000E9461289981691A6982262D40E0632D65
:10559000812F0E946128298140E0632D8C810E9427
:1055A00061282A960FB6F894DEBF0FBECDBFDF91FB
:1055B000CF911F910F91FF90EF90DF90CF90BF9010
:1055C000AF909F908F907F906F905F904F903F90A3
:1055D0002F9008952F923F924F925F926F927F92F9
:1055E0008F929F92AF92BF92CF92DF92EF92FF92F3
:1055F0000F931F93CF93DF9300D000D0CDB7DEB7CA
:10560000E82E8091D2099091D309E091D009F091D0
:10561000D109039609958A838091D2099091D30983
:10562000E091D009F091D109049609958B8380917E
:10563000D2099091D309E091D009F091D109059652
:1056400009954E2D0E2C000C550B9B81292F30E017
:10565000421753070CF4A4C0C82ED12C2C0D3D1DAD
:10566000421753070CF09CC02090CD092091CE0921
:105670002983E91A1B82812C912C0E2C000CFF0827
:105680008B81282F30E08091D2099091D309E0914D
:10569000D009F091D1092E153F055CF42A5F3F4FE8
:1056A000820F931F0995880E911C3B813F5F3B83BE
:1056B000E7CF3A81232F30E03C832B838901095FB8
:1056C0001F4F23E0159507952A95E1F7089D500196
:1056D000099DB00C189DB00C112426E0C20ED11CFF
:1056E000AC0CBD1C36E0E30EF11C8E0D9F1D099520
:1056F000582E38E0E32EF12C312C412C401608F0C6
:1057000046C037018B819C81681A790AC12CD12C43
:105710004501830C911CC51428F52091D2093091C4
:10572000D309E091D009F091D109C4018C0D9D1DE0
:10573000820F931F09952B813C812E153F053CF468
:1057400090E0062C02C0959587950A94E2F7909117
:10575000CC099F3F09F080950E949F263FEFC31A16
:10576000D30AD9CF8091CC098F3F11F480E001C0DA
:105770008FEF0E949F266091CE09685F822D0E9464
:10578000DA254394350C88E0E80EF11CB7CF81E0B0
:10579000820D6981850D0E94DA2580E090E002C0CB
:1057A00081E090E00F900F900F900F90DF91CF91DC
:1057B0001F910F91FF90EF90DF90CF90BF90AF902F
:1057C0009F908F907F906F905F904F903F902F9021
:1057D00008950F931F93CF93DF93D091CD098C0140
:1057E000F80181918F018823B9F08A3091F4C0913A
:1057F000CE098091D2099091D309E091D009F0911E
:10580000D109039609956C2F680F8D2F0E94DA2518
:10581000E7CF0E94EA2AE4CFDF91CF911F910F9149
:1058200008950F931F93CF93DF93EC010091CD095F
:10583000FE0184918823E1F0FE0184918A3091F485
:105840001091CE098091D2099091D309E091D009AD
:10585000F091D10903960995612F680F802F0E945E
:10586000DA2504C0FE0184910E94EA2A2196E0CF45
:10587000DF91CF911F910F9108950F93CF93DF93F5
:1058800000D0CDB7DEB70E94B73F0E94F71F0E943D
:1058900002110E94530B0E9484460E94E73F0E941F
:1058A000CA1B0E94E1200E94FC4082E087BF1A824E
:1058B000198289819A8188399A4330F489819A8141
:1058C00001969A838983F5CFDF9A80E00E941C2994
:1058D00000E02FE34FEB60E080E00E9461284FEF93
:1058E00064E475E286E090E10E9447250E945E4BE9
:1058F0000E945D150E94C6110E94E83A1A82198220
:1059000089819A81049748F5E981FA81A981BA8150
:10591000AA0FBB1FAE5ABD4F8C9193E0EE0FFF1F35
:105920009A95E1F7EE5BF74F8683E981FA81A981C9
:10593000BA81AA0FBB1FAE5ABD4F11968C9133E0AE
:10594000EE0FFF1F3A95E1F7EE5BF74F87838981F2
:105950009A8101969A838983D3CF62E572E081E0D0
:105960000E949F230E94314410925C0A0E94DB44F3
:1059700078940E947C4080E090E00F900F90DF913F
:10598000CF910F9108950F930FEF2FE34FEB60E04E
:1059900080E00E94F42820E04FEB6DE080E00E9460
:1059A00061284FEF64E475E286E090E10E944725AC
:1059B00061E083E00E94DA2588E694E10F910C947F
:1059C000112CAEEDB2E052967C915297272F30E029
:1059D000A9014F5F5F4FFA01EE0FFF1F4E0F5F1FD0
:1059E000FA01E252FD4F91838083F901EE0FFF1F10
:1059F0002E0F3F1FF901E252FD4F65837F5F5296E4
:105A00007C930895AEEDB2E052968C9152978150FE
:105A100052968C93529790E09C012F5F3F4FF90173
:105A2000EE0FFF1F2E0F3F1FF901E252FD4F2081A5
:105A300031812D933C93D901A251BF4FFC01EE0F50
:105A4000FF1F8E0F9F1FFC01E252FD4F85818C933B
:105A50000895E091E002F0E0EE0FFF1FE65AFD4FDF
:105A60000190F081E02D80810895E091E002F0E066
:105A7000EE0FFF1FE65AFD4F0190F081E02D83816C
:105A80000895CF930E94292DE091DE02F091DF026C
:105A90009081C82FC91BE091E002F0E0EE0FFF1FDC
:105AA000E65AFD4F0190F081E02DCC2361F084E1B6
:105AB000C89FE00DF11D11246381818192810E94B4
:105AC000E12CC150E8CF818192819093DF028093D5
:105AD000DE022381FC01E251FF4F2083CF91089524
